:1000000096C10000C5C10000C3C10000C1C100000D
:10001000BFC10000BDC10000BBC10000B9C10000EC
:10002000B7C10000B5C10000B3C10000B1C10000FC
:10003000AFC10000ADC10000ABC10000A9C100000C
:10004000A7C10000A5C10000A3C10000A1C100001C
:100050009FC100009DC100009BC100000C94210EB7
:1000600097C100001BC60000F0C5000091C1000050
:100070008FC100008DC100008BC1000089C100004C
:1000800087C1000085C1000083C1000081C100005C
:100090007FC100007DC100007BC1000079C100006C
:1000A00077C1000075C1000073C1000071C100007C
:1000B0006FC100006DC100006BC1000069C100008C
:1000C00067C1000065C1000063C1000061C100009C
:1000D0005FC100005DC100005BC1000059C10000AC
:1000E00057C100008E0D910D800D840D880DC80D37
:1000F000950D990D9F0DA30DA70DAD0DB10DB50D6E
:10010000C80DBB0DBF0DC30D00407A10F35A00A0FF
:10011000724E18090010A5D4E80000E876481700D0
:1001200000E40B54020000CA9A3B000000E1F50510
:10013000000080969800000040420F000000A0865A
:1001400001000000102700000000E803000000008C
:100150006400000000000A00000000000100000030
:1001600000002C76D888DC674F0823DFC1DFAE594A
:10017000E1B1B796E5E3E453C63AE651997696E8DD
:10018000E6C28426EB898C9B62ED407C6FFCEFBC61
:100190009C9F40F2BAA56FA5F490055A2AF75C938C
:1001A0006B6CF9676DC11BFCE0E40D47FEF520E6C2
:1001B000B500D0ED902E0300943577050080841EA5
:1001C000080000204E0A000000C80C333333330F00
:1001D000986E12831141EF8D2114893BE65516CF9D
:1001E000FEE6DB18D1844B381BF77C1D901DA4BBA9
:1001F000E424203284725E228100C9F124ECA1E55E
:100200003D2772756E2D6272696467650A000A0087
:100210000A00302E302E302E30003132372E302E64
:10022000302E310000000A0B02090C0D0E080703E6
:1002300004010000000000000000000000000000B9
:1002400000000000000000000000000000000000AE
:10025000121110000000000000000000000000006B
:100260000000000000000000000000002200250047
:1002700028002B002E00310034000201000005018F
:1002800008010B0100002100240027002A002D0096
:100290003000330001010000040107010A010505D7
:1002A0000505070508080808020202020A0A0808EC
:1002B000040404040101010101010101030303031A
:1002C00003030303040707070C0C0C0C0C0C0C0CA9
:1002D0000202020206060606060606060B0B0B0BBA
:1002E0000B0B0B0B010210202008081020401020DF
:1002F00040800201020108040201010204081020EA
:1003000040808040201008040201800402018040E7
:100310002010080402010804020101020408102050
:10032000408001020408102040800A12F7111124B5
:100330001FBECFEFD1E2DEBFCDBF00E00CBF24E097
:10034000A8E8B3E001C01D92A83DB207E1F713E0B1
:10035000A0E0B2E0EAE0F2E300E00BBF02C00790E9
:100360000D92A838B107D9F711E0C6E9D1E000E055
:1003700006C021970109802FFE010E94CE16C539C3
:10038000D10780E00807A9F70E946B0E0C94F418BF
:1003900037CECF92DF92EF92FF920F931F93CF93BE
:1003A000DF936C017A018B01C0E0D0E0CE15DF0550
:1003B00081F0D8016D918D01D601ED91FC910190F4
:1003C000F081E02DC6011995892B11F02196EECF11
:1003D0007E01C701DF91CF911F910F91FF90EF90A8
:1003E000DF90CF900895FC01538D448D252F30E090
:1003F000842F90E0821B930B541710F0CF96089532
:1004000001970895FC01918D828D981761F0828D7E
:10041000DF01A80FB11D5D968C91928D9F5F9F7338
:10042000928F90E008958FEF9FEF0895FC01918DDA
:10043000828D981731F0828DE80FF11D858D90E047
:1004400008958FEF9FEF0895FC01918D228D892FE4
:1004500090E0805C9F4F821B91098F7399270895CC
:100460008CE893E0F1DF21E0892B09F420E0822F72
:100470000895FC01848DDF01A80FB11DA35ABF4F61
:100480002C91848D90E001968F739927848FA68993
:10049000B7892C93A089B1898C91837080648C93E7
:1004A000938D848D981306C00288F389E02D808196
:1004B0008F7D80830895EF92FF920F931F93CF93C8
:1004C000DF93EC0181E0888F9B8D8C8D981305C0A4
:1004D000E889F989808185FD25C0F62E0B8D10E015
:1004E0000F5F1F4F0F731127E02E8C8DE8120BC08A
:1004F0000FB607FCFACFE889F989808185FFF5CF2F
:10050000CE01B7DFF2CF8B8DFE01E80FF11DE35A6C
:10051000FF4FF0829FB7F8940B8FEA89FB898081A7
:1005200080620AC09FB7F894EE89FF896083E889EA
:10053000F98980818370806480839FBF81E090E02F
:10054000DF91CF911F910F91FF90EF900895CF937E
:10055000DF93EC01888D8823C1F0EA89FB898081D3
:1005600085FD05C0A889B9898C9186FD0EC00FB69E
:1005700007FCF5CF808185FFF2CFA889B9898C91DE
:1005800085FFEDCFCE0175DFE8CFDF91CF910895E4
:1005900080E090E0892B19F063DF811125C080E0B5
:1005A00090E0892B41F080E090E0892B21F00E94BF
:1005B000000081111CC080E090E0892B41F080E0B8
:1005C00090E0892B21F00E940000811113C080E08F
:1005D00090E0892BA1F080E090E0892B81F00E94CF
:1005E000000081110AC008950E940000D8CF0E9427
:1005F0000000E1CF0E940000EACF0C9400000895B3
:100600000895FB012785FC012787FB012685FC0156
:1006100026870895FC01878508950895CF93DF9379
:10062000EC018D819E81DC01ED91FC910084F185CE
:10063000E02D19951816190654F48D819E81DC0160
:10064000ED91FC910284F385E02D1995EACFDF91BD
:10065000CF910895FC01238134812627022E229513
:10066000207F2025032E322F22952F7002262695DB
:1006700032272327220F220F220F202534832383A2
:10068000089580E090E008950F931F93CF93DF9338
:10069000EC0188819981009729F02A813B812617F6
:1006A000370788F48B016F5F7F4F0E94F717009721
:1006B00061F0998388831B830A832C813D81232BDE
:1006C00011F4FC01108281E001C080E0DF91CF9144
:1006D0001F910F910895CF93DF93EC018881998149
:1006E000009711F00E946E17198218821D821C82D9
:1006F0001B821A82DF91CF910895EF92FF920F93A0
:100700001F93CF93DF93EC017B018A01BA01BCDF19
:10071000811103C0CE01DFDF07C01D830C83B70149
:10072000888199810E94ED18CE01DF91CF911F91B0
:100730000F91FF90EF9008958F929F92AF92BF928A
:10074000CF92DF92EF92FF920F931F93CF93DF939D
:100750007C01EB016C0182E0C80ED11C4701E5E091
:100760008E0E911C00E010E0F60141916F0150E007
:1007700060E070E02AE0CE010E94170D5C01E88184
:10078000F9810190F081E02D6EE2CE0119958A0D7C
:100790009B1D080F191F8C149D0431F7F70145812B
:1007A00050E060E070E02AE0CE010E94170D800F5B
:1007B000911FDF91CF911F910F91FF90EF90DF90EC
:1007C000CF90BF90AF909F908F900895CF93DF937D
:1007D000EC010E943A0C8A89882331F08B89C80F7A
:1007E000D11D8C8990E002C08FEF9FEFDF91CF91F8
:1007F0000895CF93DF93EC010E943A0C8A898823F5
:1008000059F081508A8B8B8991E0980F9B8BC80F90
:10081000D11D8C8990E002C08FEF9FEFDF91CF91C7
:100820000895CF93DF93EC010E943A0C8A8990E0FF
:10083000DF91CF910895CF93DF93EC010E94EC0CF0
:100840008E85882341F08F85E889F989E80FF11DAD
:10085000808190E002C08FEF9FEFDF91CF910895EC
:10086000CF93DF93EC010E94EC0C8E85882369F016
:1008700081508E87E889F9898F8591E0980F9F874D
:10088000E80FF11D808190E002C08FEF9FEFDF91B4
:10089000CF910895CF93DF93EC010E94EC0C8E85ED
:1008A00090E0DF91CF910895CF93DF93EC010E9408
:1008B000BE0C8889882331F08989C80FD11D8A89A7
:1008C00090E002C08FEF9FEFDF91CF910895CF921C
:1008D000DF92EF92FF920F931F93CF93DF93EC0180
:1008E0006A017B0100E010E08889811106C0CE0119
:1008F0000E94BE0C8889882399F00F5F1F4F898959
:1009000091E0980F998BFE01E80FF11D8289F701A4
:1009100081937F0188898150888B0C151D0520F3F8
:10092000C801DF91CF911F910F91FF90EF90DF9061
:10093000CF900895CF93DF93EC010E94BE0C88897D
:10094000882359F08150888B898991E0980F998B81
:10095000C80FD11D8A8990E002C08FEF9FEFDF9111
:10096000CF910895CF93DF93EC010E94BE0C88894C
:1009700090E0DF91CF9108958F929F92AF92BF92B6
:10098000CF92DF92EF92FF92CF93DF93EC016B0156
:100990000E94150E4B015C01E12CF12C8D819E8192
:1009A000DC01ED91FC910284F385E02D199597FF10
:1009B0000FC00E94150EDC01CB0188199909AA0904
:1009C000BB098C159D05AE05BF0540F38FEF9FEF6A
:1009D000DF91CF91FF90EF90DF90CF90BF90AF90DD
:1009E0009F908F900895EF92FF920F931F93CF9354
:1009F000DF936115710511F480E01BC041155105AD
:100A0000B9F07B01EC018C819D818A01080F191FCF
:100A1000B801CE0139DE882379F3288139818C81B0
:100A20009D81B701820F931F0E94ED181D830C83D7
:100A300081E0DF91CF911F910F91FF90EF9008958A
:100A4000CF93DF93EC016115710559F0FB01019023
:100A50000020E9F73197AF01461B570BC4DF811126
:100A600002C0CE0138DECE01DF91CF910895CF9341
:100A7000DF93EC01FB014481558160817181B3DF1B
:100A8000811102C0CE0127DECE01DF91CF91089502
:100A9000CF93DF93EC016115710551F0FB010190DB
:100AA0000020E9F73197AF01461B570B26DE01C046
:100AB00012DECE01DF91CF910895CF93DF93EC0149
:100AC000FB018617970751F06081718161157105EF
:100AD00021F04481558111DE01C0FDDDCE01DF91A1
:100AE000CF910895FC01808191810C946E17FC01D7
:100AF000118210821382128215821482611571058F
:100B000049F0FB0101900020E9F73197AF01461B46
:100B1000570BF3CD0895CF92DF92EF92FF920F9390
:100B20001F93CF93DF9300D000D0CDB7DEB77C0109
:100B30008B016A0166EA72E0CE010196D8DF62E1BC
:100B400070E0CE010196A0DDD80112966C91CE0125
:100B50000196D7D6CE010196FDD6F8016381CE016C
:100B60000196CFD6CE010196F5D6D80114966C9198
:100B7000CE010196C6D6CE010196ECD6F80165816C
:100B8000CE010196BED669817A81D701ED91FC91A3
:100B90000088F189E02DA601C70119958C01CE01CD
:100BA0000196A0DFC80126960FB6F894DEBF0FBEEF
:100BB000CDBFDF91CF911F910F91FF90EF90DF900C
:100BC000CF9008956115710579F0FB010190002027
:100BD000E9F73197AF01461B570BDC01ED91FC9112
:100BE0000280F381E02D199480E090E008950F9346
:100BF0001F93CF93DF93EC01E5DF8C0164EA72E091
:100C0000CE01E0DF800F911FDF91CF911F910F91F7
:100C100008950F931F93CF93DF93EC01FB01448161
:100C2000558160817181E881F9810280F381E02D35
:100C300019958C0164EA72E0CE01C4DF800F911F28
:100C4000DF91CF911F910F9108951F920F920FB6D0
:100C50000F9211240BB60F922F933F934F935F93F4
:100C60006F937F938F939F93AF93BF93EF93FF9374
:100C70008CE893E0FEDBFF91EF91BF91AF919F91E4
:100C80008F917F916F915F914F913F912F910F9035
:100C90000BBE0F900FBE0F901F9018951F920F92D2
:100CA0000FB60F9211240BB60F922F938F939F9331
:100CB000EF93FF93E0919C03F0919D038081E0917D
:100CC000A203F091A30382FD12C090818091A5033D
:100CD0008F5F8F732091A603821751F0E091A503D7
:100CE000F0E0E457FC4F958F8093A50301C080810D
:100CF000FF91EF919F918F912F910F900BBE0F90CD
:100D00000FBE0F901F9018952F923F924F925F92B7
:100D10006F927F928F929F92AF92BF92CF92DF920B
:100D2000EF92FF920F931F93CF93DF93CDB7DEB770
:100D30002E970FB6F894DEBF0FBECDBF9E878D876E
:100D40003B0129019A01200F311F3A8329838A80B0
:100D5000912C22242A94322CCB01840F951F988742
:100D60008F83D201A00FB11FBA87A987F701EC0DBD
:100D7000FD1DFC87EB87AD85BE8518968C91189775
:100D8000981608F02BC114963C922E921397159644
:100D90008D919C911697DC01ED91FC910190F08171
:100DA000E02D6FEF19956FEF8D859E8553DCED85F6
:100DB000FE8585819681DC01ED91FC910190F081A9
:100DC000E02DAD85BE856C911995ED85FE85608120
:100DD000CF0140DCAD85BE8515968D919C9116970F
:100DE000DC01ED91FC910190F081E02D682D1995C9
:100DF000682D8D859E852EDCED85FE85858196810D
:100E0000DC01ED91FC910190F081E02D6981199553
:100E100069818D859E851EDC5301EF81F885AE16B4
:100E2000BF06B9F0AD85BE8515968D919C9116973C
:100E30008501DC01ED91FC910190F081E02DD5015F
:100E40006D915D011995F80160818D859E8502DCAB
:100E5000E4CF8201AD85BE8515968D919C91169744
:100E6000E985FA850E171F0789F05801DC01ED911D
:100E7000FC910190F081E02DD8016D918D011995C3
:100E8000F50160818D859E85E5DBE4CFAD85BE856E
:100E900014966C91DC01ED91FC910190F081E02DB4
:100EA0001995ED85FE8585819681DC01ED91FC919A
:100EB0000190F081E02DAD85BE8513966C9119955A
:100EC00068EC70E08D859E8557DD8F3F910509F0B8
:100ED0007BC0ED85FE85348223826FEFCF01BADBC4
:100EE00065E070E08D859E8547DDAD85BE856C91A2
:100EF000262F30E08217930709F066C0CD01AADBE8
:100F00006AE070E08D859E8537DD5C0197FD5CC0F1
:100F1000682F8D859E859EDB6AE070E08D859E85BD
:100F20002BDD8C0197FD50C0682F8D859E8592DB4F
:100F3000AC821B82EB81FC810E0F1F1F57019701B2
:100F4000200F311F3E832D838D819E81A816B90607
:100F5000B1F0AB85BC85AA16BB0689F065E070E0F0
:100F60008D859E8509DD97FD06C0F5018083682F7C
:100F70008D859E856FDBFFEFAF1ABF0AE5CF65E079
:100F800070E08D859E85F8DC5C0197FD1DC065E0F5
:100F900070E08D859E85F0DC97FD16C0BA2CAA24E2
:100FA0008A0D9B1DAD85BE8513962D913C9114979E
:100FB0008217930749F48C918F5F8C93C6010C15AF
:100FC0001D0570F4C8010CC0939464E670E080E0E5
:100FD00090E0F3D58D859E8521DBCDCE8FEF9FEF01
:100FE0002E960FB6F894DEBF0FBECDBFDF91CF9126
:100FF0001F910F91FF90EF90DF90CF90BF90AF9037
:101000009F908F907F906F905F904F903F902F9028
:1010100008958F929F92AF92BF92CF92DF92EF92FC
:10102000FF920F931F93CF93DF931F92CDB7DEB73D
:101030005C019B014A01DC0152968C91811105C033
:101040008B017B01E40EF51E30C080E58983C12C45
:10105000D12CE12CF12C8A0141E050E0BE016F5F00
:101060007F4FF501848595854FDE22C0D5015596C9
:10107000ED91FC91569753968C91539791E0980F70
:1010800053969C93D8019D918D01E80FF11D90839B
:10109000F50193898489981308C00190F081E02DAF
:1010A0000680F781E02DC50119950E151F05F1F693
:1010B000C4010F90DF91CF911F910F91FF90EF909E
:1010C000DF90CF90BF90AF909F908F900895AF9298
:1010D000BF92CF92DF92EF92FF920F931F93CF9325
:1010E000DF93CDB7DEB72A970FB6F894DEBF0FBEF9
:1010F000CDBF5C018EE48F83F5018681978198874F
:1011000089871A8219821C821B821E821D8269E0D5
:1011100070E0CE010196B8DA811104C0CE010196CB
:10112000DADA0AC089E090E09E838D836AE172E09A
:1011300089819A810E94CB12F5018185811115C0A8
:1011400067E070E0CE0101969FDA811104C0CE0104
:101150000196C1DA0AC087E090E09E838D8362E148
:1011600072E089819A810E94CB120D811E812981B2
:101170003A81CC24C394D12CCE010A967C0143E061
:1011800050E0BE01695F7F4FF50184819581BCDD30
:1011900081E09A85913009F080E0F5018087CE01E9
:1011A0000196A0DC2A960FB6F894DEBF0FBECDBF25
:1011B000DF91CF911F910F91FF90EF90DF90CF9033
:1011C000BF90AF900895AF92BF92CF92DF92EF920F
:1011D000FF920F931F93CF93DF931F921F92CDB770
:1011E000DEB7FC0187858823A9F05A019B018CE6B4
:1011F000898386858A83C12CD12CE12CF12C8A012C
:1012000042E050E0BE016F5F7F4F848595857CDDB5
:10121000C50102C080E090E00F900F90DF91CF9168
:101220001F910F91FF90EF90DF90CF90BF90AF9004
:101230000895CF92DF92EF92FF920F931F93680170
:10124000790100E010E020E030E05EDD1F910F91B9
:10125000FF90EF90DF90CF900895AF92BF92CF9222
:10126000DF92EF92FF920F931F93CF93DF93CDB74F
:10127000DEB727970FB6F894DEBF0FBECDBF5C0177
:101280009B0183E489835A834B83FB0101900020F7
:10129000E9F731978F01061B170BCC24C394D12C8F
:1012A000CE0106967C0143E050E0BE016F5F7F4FA8
:1012B000D5011C968D919C911D9726DD892BB1F14E
:1012C0008E81F501868793E69C838D8301E010E093
:1012D0009E01295F3F4F42E050E0BE016C5F7F4FAF
:1012E000D5011C968D919C911D97A3DF8F8188233A
:1012F00031F061E070E080E090E05FD4E7CF81E022
:10130000F50187870190F081E02D0688F789E02DAF
:10131000C501199581110DC0D501ED91FC9104888D
:10132000F589E02DC5011995F501168680E090E05C
:1013300002C081E090E027960FB6F894DEBF0FBEA2
:10134000CDBFDF91CF911F910F91FF90EF90DF9074
:10135000CF90BF90AF900895EF92FF920F931F939D
:10136000CF93DF9300D0CDB7DEB7DC011F962C9171
:101370001F972223F9F07C01ED91FC910084F18507
:10138000E02D1995892BC1F48CE48983F7018685BA
:101390008A8301E010E09E012D5F3F4F42E050E064
:1013A000BE016F5F7F4F8485958543DF81E09B8120
:1013B000913019F080E001C081E00F900F900F9004
:1013C000DF91CF911F910F91FF90EF9008950F93B0
:1013D0001F9300E010E020E030E02BDF1F910F9121
:1013E00008950F931F93CF93DF931F921F92CDB752
:1013F000DEB78C01FC018189882361F087E789834E
:1014000086858A8342E050E0BE016F5F7F4F84850E
:101410009585DDDFF801118A0F900F90DF91CF9154
:101420001F910F910895CF93DF9300D0CDB7DEB712
:1014300029E42983FC0126852A836B8343E050E05D
:10144000BE016F5F7F4F84859585C1DF81E090E0AD
:101450000F900F900F90DF91CF910895CF93DF936E
:10146000FC01228921110AC0EC01438950E0658901
:10147000768984859585ABDF81E08B8BDF91CF9179
:101480000895CF93DF931F921F92CDB7DEB7DC0193
:1014900052968C915297882371F080E589836A83F4
:1014A00042E050E0BE016F5F7F4F1C968D919C9192
:1014B0001D978DDF1FC05596ED91FC915697539661
:1014C0008C91539791E0980F53969C935397E80F04
:1014D000F11D608353969C91539754968C91549729
:1014E000981308C0ED91FC9111970680F781E02DCB
:1014F000CD01199581E090E00F900F90DF91CF9191
:101500000895CF93DF931F921F92CDB7DEB722E6E7
:1015100029836A8342E050E0BE016F5F7F4FFC0188
:101520008481958154DF81E090E00F900F90DF91EE
:10153000CF910895CF93DF9300D0CDB7DEB7FC01F4
:101540002785222381F08CE6898386858A836B83B5
:1015500043E050E0BE016F5F7F4F8485958537DFA4
:1015600081E090E002C080E090E00F900F900F903B
:10157000DF91CF9108950F931F93CF93DF931F9225
:101580001F92CDB7DEB78C01FC018785882361F0FF
:101590008AE6898386858A8342E050E0BE016F5FD8
:1015A0007F4F8485958513DFF8011786108A118A8D
:1015B0000F900F90DF91CF911F910F910895CF92CF
:1015C000DF92EF92FF920F931F93CF93DF93CDB7EC
:1015D000DEB72E970FB6F894DEBF0FBECDBF7C01ED
:1015E000C7011CD868EE73E080E090E0E6D2D70136
:1015F00015968D919C911697DC01ED91FC910084DC
:10160000F185E02D19951816190654F3DD24D394AD
:1016100082E3C82E85E0E2E1F2E0DE01119601905E
:101620000D928A95E1F7F701D08645E050E0BE01C2
:101630006F5F7F4FC701CBDED70115968D919C91CF
:101640001697DC01ED91FC910190F081E02D63E0B3
:1016500019956AEF70E080E090E0AFD260E172E04F
:10166000F70185819681A7D06AEF70E080E090E075
:10167000A4D26EE072E0D70115968D919C911697D9
:101680009AD064EF71E080E090E097D262E072E07F
:10169000F701858196818FD064EF71E080E090E062
:1016A0008CD2C7010E940E0385E0E7E1F2E0DE0183
:1016B000169601900D928A95E1F7D7011896CC9273
:1016C00004E010E09E01255F3F4F45E050E0BE0181
:1016D0006A5F7F4FC701ADDD8F3FBFEF9B0731F4DE
:1016E00068EE73E080E090E068D294CF2B85211102
:1016F000FFCF049701F52C8530E02053310984E6B3
:10170000829FA001839F500D11242D8530E020532E
:1017100031096AE0629FC001639F900D1124840F1C
:10172000951F2E8530E020533109820F931FF7015A
:101730009283818307C084E690E0D70112969C9340
:101740008E93119782E3F70180872E960FB6F89457
:10175000DEBF0FBECDBFDF91CF911F910F91FF90E4
:10176000EF90DF90CF9008950E94D7183FB7F8947C
:101770008091B4049091B504A091B604B091B704DF
:1017800026B5A89B05C02F3F19F00196A11DB11DDC
:101790003FBFBA2FA92F982F8827820F911DA11D17
:1017A000B11DBC01CD0142E0660F771F881F991F54
:1017B0004A95D1F70895EF92FF920F931F93CF931D
:1017C000DF938C017B01C0E0D0E0F701EC0FFD1F3F
:1017D0006491662361F0D801ED91FC910190F08154
:1017E000E02DC8011995892B11F02196EECFCE017D
:1017F000DF91CF911F910F91FF90EF90089580910D
:10180000AA0481110BC08091AD049091AE040097A1
:1018100011F00E946E1781E08093AA048091A804C1
:101820009091A904009731F00E946E171092A904BC
:101830001092A804089590E0FC01EC51FD4F249112
:10184000FC01E256FD4F8491882399F090E0880FC7
:10185000991FFC01EC57FD4FA591B491FC01E6598D
:10186000FD4F859194918FB7F894EC91E22BEC9316
:101870008FBF0895EF92FF920F931F93CF93DF9343
:1018800000D0CDB7DEB7FC012289211117C07C0141
:10189000138A8FE4898380E48B8386858A839F0102
:1018A0002C5E3F4F00E410E043E050E0BE016F5F6C
:1018B0007F4F84859585BDDCF701828B0F900F905B
:1018C0000F90DF91CF911F910F91FF90EF900895AE
:1018D0000F931F93CF93DF93EC018B0141E050E016
:1018E00065E873E08F8598897ED8F8014481558139
:1018F000608171818F859889DF91CF911F910F91C0
:1019000072C8EF92FF920F931F93CF93DF9300D093
:101910001F92CDB7DEB77C01862F4AE08E010F5FA4
:101920001F4FB80190E03ED6F80101900020E9F782
:101930003197AF01401B510BB801C70154D80F902C
:101940000F900F900F90DF91CF911F910F91FF900B
:10195000EF900895CF93DF931F921F92CDB7DEB71C
:101960002EE229831A8241E050E0BE016F5F7F4F73
:101970003AD80F900F90DF91CF910895EF92FF9298
:101980000F931F93CF93DF9300D0CDB7DEB7FC0149
:101990002089211117C07C01118A8BE4898380E49E
:1019A0008B8386858A839F012E5E3F4F00E410E083
:1019B00043E050E0BE016F5F7F4F8485958539DC41
:1019C000F701808B0F900F900F90DF91CF911F91B7
:1019D0000F91FF90EF900895EF92FF920F931F9356
:1019E000CF93DF931F921F92CDB7DEB7FC01268500
:1019F000211114C07C01178680E7898380E28A83E5
:101A00002089318900E210E042E050E0BE016F5FC2
:101A10007F4F848595850DDCF70186870F900F90A9
:101A2000DF91CF911F910F91FF90EF9008958F92CA
:101A30009F92AF92BF92EF92FF920F931F93CF931B
:101A4000DF93CDB7DEB7A1970FB6F894DEBF0FBE18
:101A5000CDBF7C01FA01CB0119A2223008F42AE0A3
:101A60008E010F5D1F4F822E912CA12CB12CBF0136
:101A7000A50194010E94AC16F901CA010150110997
:101A80006A3014F4605D01C0695CD8016C93232B4B
:101A9000242B252B61F7B801C70194D8A1960FB666
:101AA000F894DEBF0FBECDBFDF91CF911F910F9194
:101AB000FF90EF90BF90AF909F908F900895362F3A
:101AC00090E0FC01EC5DFD4F4491FC01EC51FD4FB9
:101AD0002491FC01E256FD4F9491992309F46CC0C6
:101AE000442309F455C050E0FA013197E231F10581
:101AF00008F04EC08827EE58FF4F8F4F0C94CE163B
:101B0000809180008F7707C0809180008F7D03C017
:101B100080918000877F809380003AC084B58F7762
:101B200002C084B58F7D84BD33C08091B0008F77B3
:101B300003C08091B0008F7D8093B00029C0809158
:101B400090008F7707C0809190008F7D03C08091B7
:101B50009000877F809390001BC08091A0008F77BA
:101B600007C08091A0008F7D03C08091A000877F77
:101B70008093A0000DC0809120018F7707C08091D5
:101B800020018F7D03C080912001877F80932001F9
:101B9000E92FF0E0EE0FFF1FE659FD4FA591B4913C
:101BA0009FB7F894311104C08C912095282302C06E
:101BB000EC912E2B2C939FBF08958F929F92AF9202
:101BC000BF92CF92DF92EF92FF926B017C01CEDD4C
:101BD0004B015C01C114D104E104F104E9F0C6DD5C
:101BE000DC01CB0188199909AA09BB09883E9340F9
:101BF000A105B10578F321E0C21AD108E108F10886
:101C000088EE880E83E0981EA11CB11CC114D1047B
:101C1000E104F10421F7DECFFF90EF90DF90CF9049
:101C2000BF90AF909F908F9008952FB7F8946091D8
:101C3000B0047091B1048091B2049091B3042FBFAD
:101C400008951F920F920FB60F9211242F933F9376
:101C50008F939F93AF93BF938091B0049091B10401
:101C6000A091B204B091B3043091AF0423E0230FEC
:101C70002D3720F40196A11DB11D05C026E8230FC4
:101C80000296A11DB11D2093AF048093B0049093E0
:101C9000B104A093B204B093B3048091B4049091C2
:101CA000B504A091B604B091B7040196A11DB11D71
:101CB0008093B4049093B504A093B604B093B70492
:101CC000BF91AF919F918F913F912F910F900FBE38
:101CD0000F901F901895CF93DF93CDB7DEB7C55700
:101CE000D1090FB6F894DEBF0FBECDBF789484B58E
:101CF000826084BD84B5816084BD85B5826085BD08
:101D000085B5816085BD80916E00816080936E0095
:101D10001092810080918100826080938100809187
:101D20008100816080938100809180008160809338
:101D300080008091B10084608093B1008091B000F8
:101D400081608093B00080919100826080939100C7
:101D500080919100816080939100809190008160DA
:101D6000809390008091A10082608093A100809177
:101D7000A10081608093A1008091A0008160809388
:101D8000A000809121018260809321018091210136
:101D900081608093210180912001816080932001E6
:101DA00080917A00846080937A0080917A008260CA
:101DB00080937A0080917A00816080937A0080918C
:101DC0007A00806880937A001092C10060E072E02F
:101DD000CE0101960E947705BE016F5F7F4F86E8B6
:101DE00094E00E945D058DE026DD60E08DE067DE19
:101DF000E0913204F0913304A089B18982E08C93A0
:101E0000A485B5851C92A685B78587E08C93108E36
:101E1000A489B58986E08C93A289B3898C9180616D
:101E20008C93A289B3898C9188608C93A289B389A1
:101E30008C9180688C930288F389E02D80818F7D5E
:101E4000808380913004811106C081E0809330044A
:101E500089E294E0B4DB61E08DE031DE88E0EBDC28
:101E600061E088E02CDE8091A4049091A504FC013F
:101E70002781211103C021E02783A1DBC0DC80E2A0
:101E800090E094D79093A9048093A804CE01019682
:101E90000E94720548EE842E43E0942EA12CB12CB2
:101EA00050E2252E52E0352EC0DEDC01CB01AA2700
:101EB000BB27009188031091890320918A033091F8
:101EC0008B03AC01BD01401B510B620B730B8A01EC
:101ED0009B01093E13402105310508F472C280932D
:101EE000880390938903A0938A03B0938B039DDEAC
:101EF0002B013C01E12C24E0F22E00E010E030E464
:101F0000D32E93DEDC01CB0184199509A609B7090C
:101F1000883E9340A105B105F8F480917B00877F4E
:101F200080937B00D0927C0080917A0080648093C3
:101F30007A0080917A0086FDFCCF80917800209114
:101F4000790090E0922B081719070CF48C018E157C
:101F50009F05BCF67C01D5CFE0961FAE1EAEE09784
:101F6000E2961FAE1EAEE297E4961FAE1EAEE49759
:101F7000B8016E197F09072E000C880B990B95D5B7
:101F800020E030E040EA50E4CBD520E030E040E80B
:101F90005AE3C6D520E030E040E05FE3C1D524EF4E
:101FA0003DEF44E35FE3BCD520E030E04AE754E492
:101FB000B7D520E030E044E852E466D68E010F5FEA
:101FC0001F4F25E047E0C8D2BC01CE0182599F4F88
:101FD0000E94480567EA72E0CE0188599F4F0E942F
:101FE00077056CEA72E0C8010E947705BE0162596C
:101FF0007F4FC8010E94370563EB72E00E94200505
:10200000BE0168597F4F0E943705BC0182E994E008
:102010000E945D05C8010E947205BE0162597F4F92
:1020200082E994E00E945D051A8219821C821B825B
:102030001E821D82BE0162597F4FC8010E945D054C
:102040006BEB72E0C8010E942005BC0188E994E0B6
:102050000E940906C8010E94720548E853E160E049
:1020600072E084E394E0F9D8892B89F16EEB72E099
:1020700088E994E00E94F70569EC72E084E394E05B
:102080000E94F70561EE72E084E394E00E94F70598
:1020900066EF72E084E394E00E94F7056FE073E07E
:1020A00084E394E00E94F70561E273E084E394E046
:1020B0000E94F70564EA72E084E394E00E94E2057E
:1020C00062E974E084E394E00E94090606C068E3D4
:1020D00073E088E994E00E94F7051C821B828D82E0
:1020E0009E82AF82B88689E294E09E878D871A8AA5
:1020F0001B8A1C8A3A82298266961FAE669766EA18
:1021000072E0CE018A5A9F4F0E94770567E473E020
:10211000CE018E599F4F0E94770566E874E0CE018C
:102120008E599F4F0E9437056FE473E00E9420058F
:102130007C016FE573E0CE01845A9F4F0E947705C2
:10214000CE0101964ED986E090E030D68C01FC019C
:10215000118210821382128215821482BE01645A87
:102160007F4F0E945D05198B088BCE01845A9F4FCB
:102170000E94720566968FAD6697882391F064E69B
:1021800073E0CE01845A9F4F0E947705BE01645AC6
:102190007F4FCE0101969CDBCE01845A9F4F0E9457
:1021A00072056C968EAD9FAD6C97892BC1F067E67A
:1021B00073E0CE01845A9F4F0E947705BE01645A96
:1021C0007F4FCE01019684DBCE01845A9F4F0E943F
:1021D0007205BE016A5A7F4FCE01019679DBB701C5
:1021E000CE01019675DB82E5E5968FAFE597E8892C
:1021F000F989048115812081318192E0C92ED12C89
:10220000AE01445A5F4F7A0141E050E0BE016C5884
:102210007F4F8D859E850E9484066E968FAD6E974A
:102220008F87088919890115110529F0C8010E94B5
:102230007205C80153D6198A188A6D968FAD6D97AD
:10224000811102C081E08A8B82E7F82E6D96FFAE85
:102250006D978F856E968FAF6E9701E010E09E01AF
:102260002C583F4F42E050E0BE01645A7F4F8D85AD
:102270009E850E941909E5968FADE597813031F46E
:1022800064E670E080E090E098DCE0CF87E5E596DA
:102290008FAFE5978F85E6968FAFE69702E010E067
:1022A0009E01245A3F4F42E050E0BE016C587F4FE0
:1022B0008D859E850E941909CE018E599F4F0E94DF
:1022C0007205CE010196D6DA8B898823B1F180910F
:1022D000900490919104049780F5CE0101960E949C
:1022E000F9036E961FAE1EAE6E97A0961FAE1EAE81
:1022F000A097A2961FAE1EAEA297A3968FAFA397EC
:10230000A4961FAEA497BE016E597F4FCE01845A8A
:102310009F4F0E944805A2964EAD5FADA2976E9664
:102320006EAD7FAD6E978CE894E00E94F304CE0111
:10233000845A9F4F0E947205C4CF6CE874E088E90C
:1023400094E00E9409068091900490919104892B59
:10235000B9F000918C0410918D0467E773E0C80117
:1023600033D7892B89F560E773E088E994E00E9410
:10237000F70511E060E0812FA2DB1F5F1E30D1F76F
:1023800066EA72E08CE894E00E94480588E994E0EF
:1023900065D83A822982CE018A5A9F4F0E947205DF
:1023A00080E292E09A838983CE0101961AD8CE0109
:1023B00088599F4F0E947205CE0182599F4F0E94FB
:1023C00072050E94C80270CD62E873E0C801FCD6B5
:1023D000892BB1F66BE773E088E994E00E94F7057A
:1023E00061E08DE06CDB61E088E069DBC9CF82E908
:1023F00094E00E9472058CE894E00E94720586E8E1
:1024000094E00E94720586E992E09093990480938B
:102410009804F5C9CF93DF93ECE8F3E013821282BE
:1024200048EE53E060E070E0448355836683778331
:1024300082E392E09183808385EC90E095878487A6
:1024400084EC90E09787868780EC90E0918B808B7E
:1024500081EC90E0938B828B82EC90E0958B848B67
:1024600086EC90E0978B868B118E128E138E148ED5
:10247000C8E9D4E01B821A824C835D836E837F831C
:1024800086E992E099838883A9E2B4E0BD87AC87AE
:102490001E861F86198A188A81E08A8BC8EBD4E0D1
:1024A00080E792E0998388831A821B821C821D82B6
:1024B000CEEBD4E0998388831A821B821C821D8212
:1024C0001C921696FC93EE93159717961C921797ED
:1024D00018961C9218971A96FC93EE931997EEECA7
:1024E000F4E0918380831282138214821582E4E3E4
:1024F000F4E013821282448355836683778386E7F0
:1025000092E091838083B587A48716861786108A08
:10251000E4ECF4E01382128284E492E091838083FD
:10252000B583A48383EB95E1978386831086118618
:1025300066EA72E086E894E00E94770566EA72E057
:102540008CE894E00E94770566EA72E082E994E004
:10255000DF91CF910C947705EF920F931F93CF9358
:10256000DF93E80147FD02C034E001C034E1042EEE
:10257000000C550B57FF03C0519541955109E32EAF
:10258000022F242FAE0131D0CE01DF91CF911F91C8
:102590000F91EF900895FB01DC0105900D92002052
:1025A000E1F70895BB274A3031F4992322F4BDE2C4
:1025B000909581959F4F01C0BB27FB015527AA2706
:1025C000880F991FAA1FA41710F0A41B83955051C0
:1025D000B9F7A05DAA3308F0A95DA193009779F738
:1025E000B111B1931192CB014EC28F929F92AF92D3
:1025F000BF92CF92DF92EF92FF920F931F93CF93F0
:10260000DF93CDB7DEB729970FB6F894DEBF0FBEC4
:10261000CDBF6A01122FB02E2BE3201720F0FF242C
:10262000F394F00E02C02CE3F22E0F2D27E0AE0142
:102630004F5F5F4F50D1BC014981842F8970813039
:1026400031F0E1FC06C0E0FE06C090E205C09DE26C
:1026500003C09BE201C090E05E2D507143FF3CC07F
:10266000911102C083E001C084E0811718F4212F8A
:10267000281B01C020E051110BC0F601822F30E26F
:10268000882319F031938150FBCFC20ED11C20E07A
:10269000992329F0D6019C93F60131966F01C6016A
:1026A0000396E2FE0AC03EE4D6013C9341E4119653
:1026B0004C93119712963C9306C03EE6F601308388
:1026C00041E641833283FC01322F40E2332309F497
:1026D00042C041933150FACF42FF44C0911102C031
:1026E00083E001C084E0811718F4212F281B01C06A
:1026F00020E051110BC0F601822F30E2882319F03F
:1027000031938150FBCFC20ED11C20E0992329F0D8
:10271000D6019C93F60131966F01C6010396E2FE45
:102720000BC039E4D6013C933EE411963C931197DB
:1027300036E412963C9307C039E6F60130833EE654
:10274000318336E63283FC01322F40E2332319F025
:1027500041933150FBCFFC01E20FF11D10828EEF4F
:102760009FEFA6C021E030E0911102C020E030E0F0
:10277000161617061CF4FB01319602C0E1E0F0E0EA
:102780002E0F3F1FBB2021F0EB2DF0E0319602C051
:10279000E0E0F0E02E0F3F1FE12FF0E02E173F07A3
:1027A0001CF4121B212F01C020E08E2D887159F4DA
:1027B000F601822F30E2882319F031938150FBCF4C
:1027C000C20ED11C20E0992329F0D6019C93F6017A
:1027D00031966F0151110BC0F601822F90E38823CF
:1027E00019F091938150FBCFC20ED11C20E00F2D28
:1027F000060F9A81342F307144FF03C0913309F4DE
:102800000150101624F4093018F008E001C001E06E
:10281000AB0177FF02C040E050E0FB01E41BF50B89
:10282000A1E0B0E0AC0FBD1FEA0FFB1F8EE2A82EA7
:102830004B01801A91080B2D10E01195019511099B
:102840004F3FBFEF5B0721F4D601AC9211966D01AB
:10285000641775072CF08416950614F4818101C065
:1028600080E3415051093196D60111967D01401700
:10287000510724F0D6018C936701E2CF64177507E6
:1028800039F4963320F4953319F4311101C081E302
:10289000F6018083F701822F90E2882319F091934B
:1028A0008150FBCFF701E20FF11D108280E090E034
:1028B00029960FB6F894DEBF0FBECDBFDF91CF9142
:1028C0001F910F91FF90EF90DF90CF90BF90AF904E
:1028D0009F908F900895283008F027E03327DA0181
:1028E000990F311D87FD916000966105710539F4DE
:1028F00032602E5F3D9330E32A95E1F708959F3FC4
:1029000030F080387105610509F03C5F3C5F3D9314
:10291000913008F08068911DDF93CF931F930F9340
:10292000FF92EF92192F987F9695E92F969596959D
:10293000E90FFF27EE59FE4F99273327EE24FF2496
:10294000A701E70105900894079428F4360FE71EC5
:10295000F81E491F511D660F771F881F991F069487
:10296000A1F70590079428F4E70EF81E491F561F9B
:10297000C11D770F881F991F661F0694A1F7059048
:10298000079428F4F80E491F561FC71FD11D880F42
:10299000991F661F771F0694A1F70590079420F4EE
:1029A000490F561FC71FD81F990F661F771F881F13
:1029B0000694A9F784911095177041F0D695C795A4
:1029C00057954795F794E7941A95C1F7E8E0F1E039
:1029D00068941590159135916591959105907FE2D8
:1029E0007395E118F10A430B560BC90BD009C0F7D8
:1029F000E10CF11E431F561FC91FD01D7EF470331A
:102A000011F48A95E6CFE894015030F0080F0AF4EB
:102A10000027021708F4202F2395022F7A3328F07D
:102A200079E37D932A95E9F710C07D932A9589F67D
:102A3000069497956795379517951794E118F10ABD
:102A4000430B560BC90BD00998F023957E917395D3
:102A50007A3308F070E37C932013B8F77E917061AD
:102A60007D9330F0839571E37D9370E32A95E1F7D0
:102A70001124EF90FF900F911F91CF91DF91992733
:102A800087FD90950895DC01FC01672F71917723F4
:102A9000E1F7329704C07C916D9370836291AE1719
:102AA000BF07C8F30895E89409C097FB3EF49095DA
:102AB0008095709561957F4F8F4F9F4F9923A9F017
:102AC000F92F96E9BB279395F695879577956795A6
:102AD000B795F111F8CFFAF4BB0F11F460FF1BC0EA
:102AE0006F5F7F4F8F4F9F4F16C0882311F096E97D
:102AF00011C0772321F09EE8872F762F05C066232B
:102B000071F096E8862F70E060E02AF09A95660FE3
:102B1000771F881FDAF7880F9695879597F908959C
:102B20000BD078C069D028F06ED018F0952309F04A
:102B30005AC05FC01124A2C07ED0A0F3959FD1F3EC
:102B4000950F50E0551F629FF001729FBB27F00D5B
:102B5000B11D639FAA27F00DB11DAA1F649F6627B0
:102B6000B00DA11D661F829F2227B00DA11D621FFF
:102B7000739FB00DA11D621F839FA00D611D221FB9
:102B8000749F3327A00D611D231F849F600D211D9D
:102B9000822F762F6A2F11249F5750408AF0E1F040
:102BA00088234AF0EE0FFF1FBB1F661F771F881F89
:102BB00091505040A9F79E3F510570F014C05EC07F
:102BC0005F3FECF3983EDCF3869577956795B79574
:102BD000F795E7959F5FC1F7FE2B880F911D96959E
:102BE000879597F9089597F99F6780E870E060E00E
:102BF00008959FEF80EC089500240A941616170696
:102C000018060906089500240A94121613061406DD
:102C100005060895092E0394000C11F4882352F040
:102C2000BB0F40F4BF2B11F460FF04C06F5F7F4FF8
:102C30008F4F9F4F089557FD9058440F551F59F0DF
:102C40005F3F71F04795880F97FB991F61F09F3F99
:102C500079F087950895121613061406551FF2CFC2
:102C60004695F1DF08C0161617061806991FF1CF12
:102C700086957105610508940895E894BB27662739
:102C80007727CB0197F908950CD0C4CFBCDF40F073
:102C9000B3DF30F021F45F3F19F0A5CF5111EECF33
:102CA000A8CFC9DF98F39923C9F35523B1F3951B36
:102CB000550BBB27AA2762177307840738F09F5F5D
:102CC0005F4F220F331F441FAA1FA9F333D00E2ECC
:102CD0003AF0E0E830D091505040E695001CCAF739
:102CE00029D0FE2F27D0660F771F881FBB1F2617FE
:102CF00037074807AB07B0E809F0BB0B802DBF01D1
:102D0000FF2793585F4F2AF09E3F510568F06BCF25
:102D1000B5CF5F3FECF3983EDCF3869577956795EA
:102D2000B795F7959F5FC9F7880F911D9695879581
:102D300097F90895E1E0660F771F881FBB1F6217A0
:102D400073078407BA0720F0621B730B840BBA0B5E
:102D5000EE1F88F7E0950895A1E21A2EAA1BBB1B6F
:102D6000FD010DC0AA1FBB1FEE1FFF1FA217B30757
:102D7000E407F50720F0A21BB30BE40BF50B661F6D
:102D8000771F881F991F1A9469F760957095809531
:102D900090959B01AC01BD01CF010895EE0FFF1F7F
:102DA000881F8BBF0790F691E02D19940F931F9306
:102DB000CF93DF938230910510F482E090E0E091B0
:102DC000D604F091D70420E030E0A0E0B0E03097E6
:102DD00019F1408151810281138148175907C8F0C8
:102DE0008417950769F4109731F012960C93129797
:102DF00013961C9327C00093D6041093D70422C0C7
:102E00002115310519F04217530718F49A01BD0135
:102E1000EF01DF01F801DBCF21153105F9F0281BA7
:102E2000390B2430310580F48A819B81611571054D
:102E300021F0FB019383828304C09093D704809395
:102E4000D604FE01329644C0FE01E20FF31F8193C7
:102E5000919322503109398328833AC02091D404B8
:102E60003091D504232B41F420910E0230910F02B2
:102E70003093D5042093D40420910C0230910D029C
:102E80002115310541F42DB73EB740911002509104
:102E90001102241B350BE091D404F091D504E21704
:102EA000F307A0F42E1B3F0B2817390778F0AC016D
:102EB0004E5F5F4F2417350748F04E0F5F1F50934A
:102EC000D5044093D4048193919302C0E0E0F0E0F4
:102ED000CF01DF91CF911F910F910895CF93DF9391
:102EE000009709F481C0FC01329713821282A091ED
:102EF000D604B091D704109781F420813181820FDC
:102F0000931F2091D4043091D5042817390751F527
:102F1000F093D504E093D40467C0ED0120E030E0E5
:102F2000CE17DF0740F44A815B819E0141155105B0
:102F3000F1F0EA01F5CFD383C28340815181840F40
:102F4000951FC817D90759F488819981840F951F57
:102F50000296918380838A819B819383828321154A
:102F6000310529F4F093D704E093D6043DC0E9017C
:102F7000FB83EA8349915991C40FD51FEC17FD07D4
:102F800061F480819181840F951F0296E9019983F4
:102F90008883828193819B838A83E0E0F0E01296AC
:102FA0008D919C911397009719F0FD01DC01F7CFEB
:102FB0008D919C9111979D012E5F3F4F820F931F22
:102FC0002091D4043091D5042817390769F430973B
:102FD00029F41092D7041092D60402C013821282F0
:102FE000B093D504A093D404DF91CF9108956F924C
:102FF0007F928F929F92AF92BF92CF92DF92EF9289
:10300000FF920F931F93CF93DF93009781F4CB012F
:10301000DF91CF911F910F91FF90EF90DF90CF90B4
:10302000BF90AF909F908F907F906F90BFCEFC012C
:10303000E60FF71F9C0122503109E217F30708F44D
:10304000A5C0EC01D9010D911C9111970617170726
:10305000A8F00530110508F497C0C8010497861739
:10306000970708F491C002501109061B170B019332
:1030700011936D937C93CF0131DF86C05B01A01A61
:10308000B10A4C01800E911EA091D604B091D704D4
:10309000612C712CE12CF12C109709F446C08D9114
:1030A0009C911197A815B905B1F56C0142E0C40EC9
:1030B000D11CCA14DB0478F14C018A189B08640106
:1030C00042E0C40ED11C1296BC9012971396AC919C
:1030D000B5E0CB16D10440F0B282A3839182808206
:1030E000D9016D937C9309C00E5F1F4F800F911F14
:1030F000F90191838083EB2DFA2FE114F10431F073
:10310000D7011396FC93EE9312973EC0F093D70429
:10311000E093D60439C06816790608F43C017D01B5
:1031200012960D90BC91A02DB7CF8091D4049091B0
:10313000D50488169906E1F466167706C8F48091DE
:103140000C0290910D02009741F48DB79EB740910B
:10315000100250911102841B950BE817F907B0F487
:10316000F093D504E093D404F901718360830CC01B
:10317000CB011CDE7C01009749F0A801BE011BD0E9
:10318000CE01ACDEC70104C0CE0102C080E090E0F9
:10319000DF91CF911F910F91FF90EF90DF90CF9033
:1031A000BF90AF909F908F907F906F90089581E037
:1031B00090E0F89419C0FB01DC0102C001900D926F
:1031C00041505040D8F70895FB01DC018D910190EA
:1031D00080190110D9F3990B0895FB01DC010190CE
:1031E0000D920020E1F7089511E0C6E9D1E000E07A
:1031F00005C0802FFE01D2DD2196011DC739D10700
:0A32000080E00807B1F7F894FFCF53
:10320A003139322E3136382E302E37000000D804AC
:10321A00800058585858585858313030000000002B
:10322A00130AC901410300031104F903E60300006C
:10323A0000005B02C901F301A7022402020216027E
:10324A0000000000810AC90141030D03670800005C
:10325A000000B40BC90141030D03B40BB40BB40B4A
:10326A0000000000B40BC90141030D030000000077
:10327A009C03000000009A0AE30841030003B20419
:10328A009A0454048B052D096704BB0AAC090A0386
:10329A00010300000000410A090841032E0A4A04FA
:1032AA0030041B040D0A00415231320063757272F8
:1032BA00313D002661726449443D00204100434F7C
:1032CA004E4E45435445442100504F5354202F70CD
:1032DA006F73744461746120485454502F312E31F5
:1032EA0000486F73743A203132372E302E302E3127
:1032FA003A3530303000436F6E74656E742D5479F0
:10330A0070653A20746578742F706C61696E004339
:10331A006F6E74656E742D4C656E6774683A2037EB
:10332A0000436F6E6E656374696F6E3A204B656514
:10333A00702D416C697665004E6F7420636F6E6EF6
:10334A0065637465642100687474703A2F2F003ABB
:10335A00353030302F676574537461747573006348
:10336A0075726C002D6B002D2D68656164657200A5
:10337A005475726E6564206F6666005475726E6568
:08338A0064206F6E00FE0000DC
:00000001FF
